:020000040800F2
:10000000D8490020350200086D5C0008E154000862
:10001000455A0008B5250008A96E00080000000038
:100020000000000000000000000000001560000853
:100030003D280008000000007B5D0008F96800080A
:100040004F0200084F0200084F0200084F0200084C
:100050004F0200084F0200084F0200084F0200083C
:100060004F0200084F0200084F020008B5270008A1
:10007000C1270008CD270008D9270008E527000878
:100080004F0200084F0200084F0200084F0200080C
:100090004F0200084F0200084F0200084F020008FC
:1000A0004F0200084F0200084F0200084F020008EC
:1000B0004F0200084F020008796900084F0200084B
:1000C0004F0200084F0200084F0200084F020008CC
:1000D0004F020008516E00084F0200087D6E0008B4
:1000E0003F2800084F0200084F02000800F002F805
:1000F00000F090F80AA090E8000C82448344AAF132
:100100000107DA4501D100F085F8AFF2090EBAE82F
:100110000F0013F0010F18BFFB1A43F0010318473B
:10012000D8820000F8820000103A24BF78C878C155
:10013000FAD8520724BF30C830C144BF04680C60ED
:10014000704700000023002400250026103A28BF35
:1001500078C1FBD8520728BF30C148BF0B60704739
:100160006E2900F06F84702900F03D81662907F048
:100170002A87652907F02787672907F024876129DF
:1001800007F0238703681B0A28BF41F08001692913
:1001900000F01C84642900F01984752900F016848D
:1001A0006F2900F04685782900F00981E92900F0DF
:1001B000E184E42900F0DE84F52900F0DB84EF29F6
:1001C00000F04385F82900F008810368DB0928BFA7
:1001D00041F08001632901F02381732901F0288116
:1001E000E32901F03381F32901F0388100207047C1
:1001F0001FB501F089F904000020002107F01CFB65
:10020000401C60600020002107F000FBE0601FBD83
:1002100010B510BD01F04AF91146FFF7E9FF07F0EC
:1002200075F901F027FA03B4FFF7F2FF03BC01F000
:100230006BFA00000948804709480047FEE7FEE7DF
:10024000FEE7FEE7FEE7FEE7FEE7FEE7FEE7FEE786
:1002500004480549054A064B7047000075690008C7
:10026000ED000008D8430020D8490020D8450020E0
:10027000D8450020B2F120030AD5C2F1200320FAAC
:1002800002F001FA03F321FA02F140EA0300704799
:1002900021FA03F04FF00001704710B54C1084EACA
:1002A000530404D54042C1F1000138BF491E1B422E
:1002B00004D55242C3F1000338BF5B1E00F06FFA51
:1002C00014F0804F04D04042C1F1000138BF491EF4
:1002D00014F0004F04D05242C3F1000338BF5B1E3C
:1002E00010BD00007CB51D4616460C00009001D0E4
:1002F0002044401E074B7B442A4669460190304605
:1003000000F0B9FB05461CB10020694600F0C6FBB1
:1003100028467CBDAD07000070B5044685690068BD
:10032000C10601D5302600E02026C00707D070BDE9
:10033000D4E9012130469047206A401C20626D1E9E
:10034000F6D570BD70B5044685690078C00707D141
:1003500070BDD4E9012120209047206A401C206212
:100360006D1EF6D570BD0000F0B40D46018809057C
:1003700002D5214C7C4402E01F4C7C440E34002109
:1003800000F1240608E002F00F071209E75D42EAD7
:1003900003721B097754491C52EA0307F3D1027810
:1003A0000023120704D5702D06D009B102231134A1
:1003B0002246F0BC00F0B0BA01231034F8E770B563
:1003C00004460D462146106800F074FA024629469C
:1003D0002046BDE870400023C6E7D21D22F0070387
:1003E000D3E90023C0E70368126843F020030360E9
:1003F0000823C3610023B7E7907D00002DE9F05F7B
:10040000894604464FF0000ADFF874B1FB44C0F897
:1004100020A02046E1688847002874D0252806D00F
:10042000D4E901219047206A401C2062F1E70026B0
:100430005F462046E16888472028054607DB312DC6
:1004400005D2781910F8200C08B10643F1E7B0077F
:1004500001D526F00406C4F81CA00027C4F818A093
:100460002A2D09D0284606F019FE38B304EB870878
:10047000303DC8F8185019E059F8041B204604EB29
:1004800087029161E1688847012F054618D1E0692C
:10049000002820DA26F020061DE0D8F8180000EB2E
:1004A000800005EB40003038C8F818002046E168AD
:1004B0008847054606F0F2FD0028EED1012F0AD04C
:1004C0002E2D08D12046E16888477F1C0546022F63
:1004D00046F02006C4DBA069002803DA404246F05B
:1004E0000106A061F00701D026F010066C2D0BD09C
:1004F000682D09D04C2D39D06A2D35D0742D35D0CA
:100500007A2D33D016E038E0E1682F462046884740
:10051000B842054609D16C2F26D04FF48060E168BF
:10052000064320468847054604E06C2F1AD04FF456
:10053000807006430DB3A5F14100192802D820357B
:1005400046F400664A462946204626604E46FFF796
:1005500007FE80B101280BD0F61D26F0070000F140
:10056000080956E74020E4E78020D8E70020D6E7D6
:1005700006F104094DE7284652E7206ABDE8F09FDE
:10058000207D000010B5431C02E010F8011B71B182
:100590008107FAD14FF0013202C88C1A8C4314EA59
:1005A000C211F9D0C01A0A0603D0C01E10BDC01A6D
:1005B00010BD0A0401D0801E10BD0902FCD0401EEF
:1005C00010BD032A40F2308010F0030C00F01580BB
:1005D00011F8013BBCF1020F624498BF11F801CB46
:1005E00000F8013B38BF11F8013BA2F1040298BFAB
:1005F00000F801CB38BF00F8013B11F0030300F015
:100600002580083AC0F0088051F8043B083A51F8B8
:1006100004CBA0E80810F5E7121D5CBF51F8043BBD
:1006200040F8043BAFF30080D20724BF11F8013B30
:1006300011F801CB48BF11F8012B24BF00F8013B92
:1006400000F801CB48BF00F8012B704710B5203AE5
:10065000C0F00B80B1E81850203AA0E81850B1E87B
:100660001850A0E81850BFF4F5AF5FEA027C24BF31
:10067000B1E81850A0E8185044BF18C918C0BDE828
:1006800010405FEA827C24BF51F8043B40F8043BF1
:1006900008BF7047D20728BF31F8023B48BF11F8A6
:1006A000012B28BF20F8023B48BF00F8012B704700
:1006B0004FF000020429C0F0128010F0030C00F08B
:1006C0001B80CCF1040CBCF1020F18BF00F8012B09
:1006D000A8BF20F8022BA1EB0C0100F00DB85FEAD7
:1006E000C17C24BF00F8012B00F8012B48BF00F8A3
:1006F000012B70474FF0000200B513469446964612
:10070000203922BFA0E80C50A0E80C50B1F1200124
:10071000BFF4F7AF090728BFA0E80C5048BF0CC0D2
:100720005DF804EB890028BF40F8042B08BF704730
:1007300048BF20F8022B11F0804F18BF00F8012BA2
:10074000704710B5044610F0030F08BF11F0030FF7
:1007500040F015804FF0013E121FC0F20E8051F89C
:10076000043BA3EB0E0C2CEA030C1CEACE1C08BFC6
:1007700040F8043BF0D0A1F1040102F10402521E42
:1007800008DB11F8013B002B00F8013BF7D11146C3
:10079000FFF78EFF204610BD70477047704753EA41
:1007A000020C00F069802DE9F04B4FF00006002BA1
:1007B0001FBFB3FA83F503FA05F424FA05F65E4089
:1007C00012BF1643B2FA82F502FA05F4C5F120050C
:1007D0001EBF22FA05FC44EA0C04203556EA044CFC
:1007E0004FEA144418BF641C4FF000084FF0000992
:1007F000904271EB030C39D3002919BFB1FA81F78C
:1008000001FA07F6B0FA80F700FA07F6C7F12007F9
:100810001EBF20FA07FC46EA0C062037B6FBF4FCA4
:10082000A7EB0507103F07F01F0BCBF120060CFAD2
:100830000BFB2CFA06F644BFB3460026202FA4BFBC
:100840005E464FF0000B5BEA060C08BF4FF0010B51
:1008500019EB0B09ABFB027C48EB0608C01B06FB3F
:1008600002CC0BFB03CC71EB0C01C1E70B4602463B
:1008700041464846BDE8F08B13B54FF000004FF0FD
:100880000001AFF30080BDE81C40704710B500F0D8
:10089000E7F9006810BD10B5044600F0E1F9046006
:1008A00010BD09684A0501D540B27047C905FCD59D
:1008B00000B2704709684A0501D5C0B27047C90542
:1008C000FCD580B2704770B50C460546012A05D0AC
:1008D0002878800600D5EA69002302E0012305E0BC
:1008E0005B1C934202D2E05C0028F9D1A869E618AB
:1008F000C01AA861286A184428622846FFF70CFD30
:1009000004E0D5E9012114F8010B9047B442F8D373
:100910002846FFF717FD70BD2DE9F0470D469946B3
:100920009246044600F124080168880604D5E0696F
:1009300021F01001216000E00120A84201DD471BE9
:1009400000E00027A1697A1902EB0900081AA061EA
:100950002078C00602D42046FFF7DEFC002608E01F
:10096000D4E901211AF806009047206A401C761C41
:1009700020624E45F4DB2078C0060AD52046FFF7FA
:10098000CBFC06E0D4E9012130209047206A401CCE
:100990002062381EA7F10107F4DC07E0D4E9012149
:1009A00018F805009047206A401C2062281EA5F117
:1009B0000105F3DC2046FFF7C5FC2078000602D5D0
:1009C0000220BDE8F0870120FBE700002DE9F0419F
:1009D0000646002410687529314616A510D0FFF789
:1009E00060FF002802DA404213A507E031688A0759
:1009F00001D512A502E0490704D511A5012401E0A3
:100A0000FFF758FF00210A2206F1240709E0B0FB96
:100A1000F2FCB0FBF2F302FB1C00303078541846B5
:100A2000491C0028F3D123462A463046BDE8F04150
:100A3000FFF772BF000000002D0000002B00000037
:100A40002000000011680268006A530501D5087093
:100A50000AE0D30501D5088006E0130603D5C217C6
:100A6000C1E9000200E008600120704701694A1CEA
:100A700002610878704700B58FB0CDE901310021DF
:100A8000059105497944CDE9031011466846FFF701
:100A9000B5FC0FB000BD0000E5FFFFFF0A6802F8DB
:100AA000010B0A607047D1E900239A4202D2531C1D
:100AB0000B601070704700002DE9FF5F15468A46F5
:100AC0000446DFF8AC80F8440027D8E900103E4621
:100AD000CDE9001010E03AF816106A4602A800F0BE
:100AE000C1FC411C07D02178890603D5E269391879
:100AF00091420DD80744761C2078800602D5E06923
:100B0000B84205DDAE42E6DB3AF816000028E2D135
:100B1000A069C01BA0612046FFF7FEFBD8E90010CA
:100B2000CDE90010002017E03AF818106A4602A834
:100B300000F098FCB0F1FF3F81460BD000250DF18D
:100B4000080B05E0D4E901211BF8050090476D1C56
:100B50004D45F7D308F10100B0428046E4DB206A3E
:100B6000384420622046FFF7EDFBBDE8FF9F000000
:100B70007A7600002DE9F0418046D21D22F007026E
:100B80000025D2E90002F52915A614D0011E72F144
:100B9000000106DA0023D0EB030063EB020211A68A
:100BA00008E0D8F800108B0701D50FA602E049072E
:100BB00001D50EA601251146002408F1240704E002
:100BC00000F052F830323A55641C50EA0102F7D175
:100BD0002B46324621464046BDE8F041FFF79CBE19
:100BE000000000002D0000002B000000200000008D
:100BF00030B4002100F1240408E002F00705D20817
:100C0000303542EA4372DB086554491C52EA030559
:100C1000F3D10468002310A2250707D5A40600D449
:100C200021B1C46901230DA2641EC46130BCFFF769
:100C300073BE10B5044621461068FFF73BFE02461E
:100C40002046BDE810400023D2E7D21D22F0070164
:100C5000D1E90023CCE700000000000030000000D4
:100C6000004870477443002030B5B0F10A024FEAE3
:100C7000900E71F100034EEA817EB0EB0E0061EB45
:100C800091014FEA101E4EEA017E10EB0E0041EB7F
:100C900011114FEA102E4EEA016E10EB0E0041EBDF
:100CA00011214FEA104E4EEA014E10EB0E0041EBBF
:100CB0001141401841F100014FEAD00040EA417073
:100CC0004FEAD10110EB80054FEA810444EA9074A9
:100CD00044EB01046D1944EB0404521BA3414FF093
:100CE000000348BF0A3200D530BD401C41F100016D
:100CF00030BD70472DE9FF4F0C461E464FF0FF37C1
:100D00008BB0D2E90001DDF860800A908A46C1F319
:100D10000A5505B93D46002108464FF00000BAF1DA
:100D2000000F00F4400005DA00EB80004FF44001B2
:100D300001EA50004FEA9059B9F1010F00DDB946C0
:100D40000A9850EA4A000ED044F61050A5F2FF353A
:100D500045432F14B8F1000F1ED07542291E1EDD29
:100D6000C9F100021CE0B8F1010F4FF0000001D002
:100D7000302103E0F24305E02154401CB042FBDB8C
:100D800030460022002121540B99C1F80880C1E9A6
:100D900000200FB0BDE8F08FBD1B6D1CDEE74A469A
:100DA00000DA694206A800F0F3FB06AB93E80700FF
:100DB00003AB83E8070050460A9900F0ACFC8DE8CD
:100DC0000700A0F500501F3800900398002D0ADDA1
:100DD00042F21F014A460844002303A903906846D3
:100DE00000F015FF09E0A0F500504A461F38002327
:100DF00003A90390684600F01FFF8DE80700000478
:100E0000000C03D04FF0FF30410800E01046B8F16D
:100E1000000F03D00022009215461EE0751E05D477
:100E2000FFF722FF303262556D1EF9D5B34601221D
:100E3000084302D000227F1C04E02078302801D132
:100E400000227F1E002A099784D01DE0112D07DAA9
:100E5000FFF70AFF303262556D1C50EA0102F5D1EE
:100E6000084302D00098C8B10EE00021681E05E0DA
:100E7000235C625C63542254401E491C8142F7DBB0
:100E8000AB46A81B401E0990002004F80B000B98ED
:100E9000099AC0F80880C0E9002B7AE711264FF0C4
:100EA000000857E72DE9F04F88460446D21D22F08E
:100EB000070191B0D1E90001CDE90A0105F0F5FF84
:100EC00002460B98C00F01D02D2007E02068810753
:100ED00001D52B2002E0202101EAC000032A09905D
:100EE00001D0072A05DB03464146204600F010FBEF
:100EF0000BE12078800601D5E06900E00620B8F11A
:100F0000650F814606D0B8F1660F18D0B8F1670FAB
:100F100070D131E00020B9F1110F009001DB1123F5
:100F200001E009F101030AAA01A90CA8FFF7E2FEFA
:100F3000DDE90C70002609F10105834647E0012038
:100F40004B4600904FF000470AAA01A90CA8FFF7F2
:100F5000D1FEDDE90DB00C995D46002610B909F10E
:100F600001000D18B9EB050003D4C0F1FF3609F1FB
:100F70000105A5EB09002BE0B9F1010F01DA4FF0F3
:100F800001090020B9F1110F0090484601DD11233D
:100F900000E003460AAA01A90CA8FFF7ABFEDDE9B1
:100FA0000C704D4600268346207800070AD4AB45D6
:100FB00000DA5D4601A8012D04DD411911F8011C7C
:100FC000302907D04F4502DA17F1040F04DA012067
:100FD00082460FE06D1EEEE7002F02DCED1B3E4463
:100FE00003E0781CA84200DD7D1CB81B00F1010A5B
:100FF0004FF000472078000703D4AA4501DB4FF0EB
:10100000FF3A0021B7F1004F0DF143088DF843106E
:1010100024D002202B23002F01DA7F422D230A2126
:10102000021EA0F1010000DC5FB197FBF1FC97FB11
:10103000F1F201FB1C7C17460CF1300C08F801CDD5
:10104000EEE7A8F1010003702188090501D54521CB
:1010500000E06521A0F1010800F8011C09980FA922
:10106000A1EB0807FF1D00B10120411901EBEA7057
:10107000A1693844081A401EA0612078C00602D435
:101080002046FFF749F9099828B1D4E90121904792
:10109000206A401C20622078C00622D52046FFF737
:1010A0003BF91EE0002E04DBB34502DD01A8805DA4
:1010B00000E03020D4E901219047206A401C2062E2
:1010C000761CAAF101005FEA000A0AD100F01CFABE
:1010D000C0680168405CD4E901219047206A401C47
:1010E0002062281EA5F10105DCDC07E0D4E901211E
:1010F00018F8010B9047206A401C2062381EA7F1A7
:101100000107F3DC2046FFF71DF9032011B041E68B
:101110002DE9F04F04460D46D21D22F0070089B09C
:10112000D0E900974846394605F0BFFE0246F80F61
:1011300001D02D2307E02068810701D52B2302E091
:10114000202101EAC0038DF820300BB1012000E01E
:101150000020032A824601D0072A04DB29462046C4
:1011600000F0D6F93FE12078800601D40D2500E09B
:10117000E569C7F30A560D2D49DA00214FEA175BDE
:1011800008464FF00000002F00F4400007DA00EBA3
:1011900080004FF4400100EBD07001EA600081153F
:1011A000012901DD4FF0FF3100224FEA850CBCF12F
:1011B000180F06D31346ACF118004FF08052C2400E
:1011C00003E04FF4801323FA0CF30CF10C0CBCF188
:1011D000200F04D3ACF1200C09FA0CF001E007FA5F
:1011E0000CF000294FF0004801DD18B90FE00ED1D6
:1011F00040450CD319EB02095F4121B9404502D1AA
:101200009F4329EA0209BBEB175F00D0761C2088B8
:10121000000502D57B48784402E07A4878441938C2
:1012200008AA302302F80A30037C0AF10101002EDB
:101230000AF1020A53546A4602DC4FF0300101E021
:101240004FF031014FF001088DF8001002D0A6F2E6
:10125000FF3603E059EA470100D06B4E002D02DC57
:101260002178090704D54FF002082E218DF80110CE
:10127000C44600210BE0C7F303433F01C35C491C94
:101280006D1E02F80830052908F1010801DA002D69
:10129000F1DC00210CE000EB1973491C1B786D1E7A
:1012A000082902F808304FEA091908F1010801DAA3
:1012B000002DF0DC21688B0602D516E0A8F10108AC
:1012C000E04505DD02EB080313F8013C302BF5D0B7
:1012D000B8F1000F09DD02EB080313F8013C2E2BD7
:1012E00003D1090701D4A8F10108002D05DD3E2135
:1012F00002F808106D1E08F10108407C002E02F86B
:10130000080008F1010804DA2D20764202F80800EE
:1013100002E02B2002F808000A214FF47A7086427E
:1013200008F101080BDB96FBF0F3303302F80830CC
:1013300096FBF0F308F1010800FB136601E0642E50
:101340000CDB642096FBF0F3303302F8083096FB98
:10135000F0F308F1010800FB136601E00A2E06DB3A
:1013600096FBF1F0303002F8080008F1010896FB16
:10137000F1F001FB1060303002F80800A16908F1BB
:10138000010808EB050202EB0A00081AA0612078A8
:10139000C00602D42046FEF7BFFF216A08AE01EB6B
:1013A0000A00206204E0D4E9012116F8010B9047FD
:1013B000BAF1010AF7D22078C00602D52046FEF71E
:1013C000ABFF6E4609E016F8010B3E280FD0D4E9BA
:1013D00001219047206A401C2062B8F10108F2D236
:1013E0002046FEF7AFFF09B00320BDE8F08F206A6A
:1013F0002844206203E0D4E90121302090476D1E8B
:10140000EBD3F8E7656F000002FCFFFF10B54369FE
:1014100013B1AFF3008001E0FFF755FA012010BDD2
:10142000127800F124010A7000224A700122EDE7CF
:1014300011684FF0FF32E9E710B5436913B1AFF31C
:10144000008001E0FFF738FB012010BD128800F199
:10145000240182840022C2840122EDE711684FF04A
:10146000FF32E9E770B516460C46054600F044F831
:10147000036893F80101012806D0FF2C0FD8185DEE
:1014800068B101202C7070BDD3F8070132462146A7
:1014900003F2071303442846BDE8704018474FF095
:1014A000FF3070BD00487047744300207546FFF759
:1014B000F9FFAE4605006946534620F00700854611
:1014C00018B020B5FEF7C4FEBDE820404FF000067E
:1014D0004FF000074FF000084FF0000B21F007011C
:1014E000AC46ACE8C009ACE8C009ACE8C009ACE85F
:1014F000C0098D467047000010B500F005F8001DCA
:1015000010BD00BF356300000048704794430020C1
:101510002DE9F0411F46044603260168072A01F41D
:10152000006004DB08B116A505E016A503E008B1CC
:1015300015A500E015A521F010002060A069C01ECF
:10154000A0610FB1401EA0612046FEF7E5FE4FB13D
:10155000D4E9012138469047206A401C2062C01C13
:10156000206206E0206AFAE7D4E9012115F8010BB0
:101570009047761EF8D22046FEF7E4FEBDE8F081E3
:101580004E414E006E616E00494E4600696E660027
:101590002DE9F047814616468AB0354878440DC893
:1015A0008DE80D0032487844801C03AC0DC884E8F7
:1015B0000D0041F69B300844372190FBF1F290FB7F
:1015C000F1F5A5F1800501FB12041B3C02D5644234
:1015D000012000E00020DFF898A080460027FA44B0
:1015E000AAF1BE0A0EE0E0070AD03246684607EBD1
:1015F000470101230AEB810100F01EFB8DE8070083
:1016000064107F1C002CEED1194F7F44AE3F19E0CF
:10161000E80715D007EB04100DF1180A90E80E004A
:101620008AE80E00C068F04201D19819089032464D
:10163000012306A903A800F0FFFA03AB83E8070023
:101640006D10641C002DE3D14FF001033246694652
:10165000B8F1000F03A802D000F0D9FA01E000F0C1
:10166000EBFAC9E90001C9F808200AB0BDE8F08723
:10167000706C000010B50446AFF300802046BDE852
:101680001040FEF7D0BD00004FF0013C50F8042B95
:1016900051F8043B9A4221D1A2EB0C03934313EA85
:1016A000CC1317D150F8042B51F8043B9A4215D1B2
:1016B000A2EB0C03934313EACC130BD150F8042B89
:1016C00051F8043B9A4209D1A2EB0C03934313EA6D
:1016D000CC13DBD04FF00000704700BFD01A01BA26
:1016E000B1FA81F101F0180122FA01F0CB40C1F109
:1016F0002001DBB2C0B2C01A2CFA01F3D11A914317
:1017000011EAC311E6D1704701491820ABBEFEE7CC
:101710002600020070475FEA400C08BF91F0000FFE
:101720004FEA8C234FEAC12243EA51514FEA1C5041
:1017300018BF00F5F0404FEA300018BF41F00041FB
:101740005FEA6C5C00F02980BCF1FF3F08BF40F00D
:1017500080407047130C06BF12044FF0100C4FF07E
:10176000000C130E04BF12020CF1080C130F04BF7F
:1017700012010CF1040C930F04BF92000CF1020C47
:10178000D30F04BF52000CF1010C11464FF00002C0
:10179000A0F11F00A0EB0C00704711F0004F08BF34
:1017A000704731F000413FF4D5AF0B0C06BF090480
:1017B0004FF0100C4FF0000C0B0E04BF09020CF19F
:1017C000080C0B0F04BF09010CF1040C8B0F04BFB4
:1017D00089000CF1020CCB0F04BF49000CF1010C85
:1017E000CCF12003A0EB0C0022FA03F302FA0CF276
:1017F00041EA030100F10100704720F07F4C80EACC
:10180000030023F07F47ACEB070303F57C5300F0A4
:10181000004003F1FF032DE980494FEA154B09B45D
:101820004FEA144325EA0B4E24EA03480FF204263C
:1018300006EB132749083E785FEA320203FB06678E
:10184000C7F5000707FB06F64FEA54374FEAD646BE
:1018500006F1020607FB066CCCF1005C4FEA1C4760
:101860002CEA074C07FB06F40CFB06F504EB1546C7
:101870004FEA961634BF00204FF000404FEAD137B0
:1018800006FB07FC4FEA1C4C0CFB0BF7D21B03FBBF
:101890000CF761EB07010CFB0EF7B0EB074072EBA6
:1018A00017420CFB08F734BFA2EB0742B2EB07422A
:1018B00061EB17414FEA0C444FEA910706FB07FC26
:1018C0004FEA1C4C0CFB0BF7B0EBC74072EB5732E6
:1018D00003FB0CF734BFA2EBC742B2EBC74261EB8C
:1018E00057310CFB0EF7B0EBC70072EB57720CFBD5
:1018F00008F734BFA2EBC702B2EBC70261EB577126
:10190000039F4FEA816141EA921104EBCC044FEA54
:10191000D1374FEA826206FB07FC42EA90124FEA97
:1019200080604FEA1C4C0CFB0BF7D21B03FB0CF73F
:1019300061EB07010CFB0EF7B0EB074072EB1742AF
:101940000CFB08F734BFA2EB0742B2EB074261EB96
:1019500017414FEA8C554FEA910704EB9C2406FB94
:1019600007FC4FEA1C4C0CFB0BF7B0EBC74072EBCB
:10197000573203FB0CF734BFA2EBC742B2EBC742AE
:1019800061EB57310CFB0EF7B0EBC70072EB5772EF
:101990000CFB08F734BFA2EBC702B2EBC70261EB46
:1019A000577115EB4C254FEA816141EA92114FEADC
:1019B00082624FEAD13742EA901206FB07FC44F1FB
:1019C00000044FEA80604FEA1C4C0CFB0BF7D21B63
:1019D00003FB0CF761EB07010CFB0EF7B0EB0740C4
:1019E00072EB17420CFB08F734BFA2EB0742B2EBD5
:1019F000074261EB174115EB1C154FEA813141EAB3
:101A000092414FEA823242EA90424FEA80304FEAF6
:101A10000C7644F1000448EA03434EEA0B484FF0C9
:101A2000000EB2EB080C71EB030724BF6246394687
:101A30004EEB0E0E4FF0000B0018524149414BEB9C
:101A40000B0BB2EB080C71EB03077BF1000B24BF0F
:101A5000624639464EEB0E0E4FF0000B0018524115
:101A600049414BEB0B0BB2EB080C71EB03077BF11D
:101A7000000B24BF624639464EEB0E0E51EA0207B8
:101A800018BF46F0010616EB0E7655F1000254F130
:101A9000000103D5BDE88901BDE80088BDE88901E2
:101AA000BDE80048B619524141EB0101A3F1010321
:101AB000704780807F7E7D7C7B7A797877767675BB
:101AC0007473727171706F6E6E6D6C6C6B6A6A6933
:101AD0006868676666656464636362616160605FCD
:101AE0005F5E5E5D5D5C5C5B5B5A5A595958585746
:101AF00057565655555554545353525252515150AE
:101B000050504F4F4F4E4E4D4D4D4C4C4C4B4B4B00
:101B10004A4A4A4949494848484747474746464646
:101B20004545454444444443434343424242424181
:101B30004141002B9C4630D477002BD01CB54FEA96
:101B4000370703B44FF010004FF01001BAF1000F47
:101B500006D0BCF1000FDCBF40F0080040F00801E7
:101B60004FF000000FBCBDE810400BF1010BBBF1C2
:101B7000010F08BF5FEA170722BF12F1010211F13E
:101B800001014FF0004143F1000300F0004043EA3F
:101B900000007047F9D35708D0E746EA064613F12C
:101BA000400F4FEA16461FDD13F1200FDFBF16432B
:101BB0000A46002120335B42BED0C3F1200746EA2B
:101BC000064602FA07F74FEA164646EA0706C3F149
:101BD000200722FA03F201FA07F721FA03F14FF086
:101BE000000342EA0702A7E746EA020646EA06467B
:101BF0004FEA164646EA0106BCBF46EA0646360CE0
:101C00004FF000034FF000024FF0000194E72DE980
:101C1000804C9A46934670B491E8380007C831EA80
:101C2000400C48BF34EA430C03D5FFF7E6FDFFF74D
:101C300080FFF0BCBDE8008C2DE9804C9A469346AD
:101C400070B491E8380007C810F0804F08BF13F057
:101C5000804F03D100F005F8FFF76BFFF0BCBDE843
:101C6000008C20F07F4780EA030023F07F4C07EBD5
:101C70000C03A3F57C5300F00040A3F1FE0392F0A7
:101C8000000F00F0B38095F0000F00F077802DE991
:101C900001494FEA11404FEA144621EA004800FB8F
:101CA00006FC24EA064708FB06F607FB08F800FBDB
:101CB00007F718EB06484CEB164C4FEA124B18EBA3
:101CC00007484FEA15464CEB174022EA0B4E0BFB38
:101CD00006FC25EA06470EFB06F607FB0EFE0BFB8D
:101CE00007F71EEB064E4CEB164C4FF000061EEBB2
:101CF000074E4CEB174B18EB0B0840F1000018EBAC
:101D00000E0B58EB000840F100008F1A4FF0000155
:101D10003CBFC943661B14BFB5EB040C00213CBF9C
:101D2000C943F61B4FEA17444EEA8E0E27EA0445D4
:101D30004FEA1C4704FB07622CEA074C05FB07F738
:101D40000CFB05F604FB0CFC16EB074642EB1742B6
:101D500016EB0C4642EB1C421BEB060658EB02024C
:101D6000414146EA9E0601D5BDE80189B6195241B6
:101D700041EB0101A3F10103BDE801894FEA1445DC
:101D80004FEA114724EA054621EA074C05FB07F410
:101D900006FB07F70CFB06F105FB0CFC11EB0741FA
:101DA00044EB17444FEA124711EB0C4144EB1C443F
:101DB00022EA074C05FB07F206FB07F70CFB06F6C9
:101DC00005FB0CFC16EB074642EB174216EB0C46E4
:101DD00042EB1C456A1854F1000148BF7047B61920
:101DE000524141EB0101A3F10103704795F0000F4F
:101DF00037D04FEA11424FEA144721EA024624EA5B
:101E0000074C02FB07F106FB07F70CFB06F402FB8D
:101E10000CFC14EB074441EB17414FEA154714EB58
:101E20000C4441EB1C4125EA074C02FB07F506FB7D
:101E300007F70CFB06F602FB0CFC16EB074645EB1E
:101E4000174516EB0C4645EB1C42121951F10001E7
:101E500048BF7047B619524141EB0101A3F101039C
:101E600070474FEA14454FEA114724EA054621EA34
:101E7000074C05FB07F106FB07F70CFB06F24FF0DA
:101E8000000605FB0CFC12EB074241EB174112EB7D
:101E90000C4251EB1C4148BF7047921841EB0101C5
:101EA000A3F101037047000070B504460068816823
:101EB000C943C90717D1816821F00101816001F090
:101EC000EBFF05460AE000BF01F0E6FF401B0228D9
:101ED00004D920688068C043C00706D020688068A5
:101EE000C043C007F0D0002070BDA06A40F01000D1
:101EF000A062E06A40F00100E062012070BD10B510
:101F00000146406A826A12F0500F05D0006A026BE7
:101F1000BDE8104008461047816A41F400718162B3
:101F200001688968C1F3424107290CD1017B51B98D
:101F3000816A21F480718162816AC90403D4816A53
:101F400041F00101816201F0D7FA10BD10B5406A7D
:101F5000816A41F040018162C16A41F00401C162BD
:101F600001F0CCFA10BD10B5406A01F0C6FA10BD00
:101F7000F8B500260446009600688168C943C90781
:101F80002DD0816841F00101816016481649006832
:101F9000B0FBF1F000E0401E00900028FBD101F002
:101FA0007BFF054616E000BF01F076FF401B0228CC
:101FB00010D920688068C043C0070BD0A06A40F0E9
:101FC0001000A062E06A40F00100E06284F8246042
:101FD0000120F8BD20688068C043C007E4D100201C
:101FE000F8BD00000C00002040420F002DE9F04138
:101FF0001548408805F0F2FD134D06462D1F4FF0A1
:10200000FF373946286806F014F80446394630464A
:1020100006F00FF8214605F057FC0C49286005F042
:1020200025FE6FF00B0106F004F8094905F0C0FC2D
:10203000084905F0BDFC084905F018FEBDE8F0416F
:10204000064905F041BC00004C00002033335340EA
:10205000000070413333A34066467B446666E63E2B
:1020600010B5054801F05EF9BDE8104004220349AF
:10207000014801F01BBB0000C80000204C000020FC
:1020800010B5012202211E2001F072FF1E2001F076
:1020900061FFBDE81040014802F066BB88010020E6
:1020A0002DE9FC41FFF7ECFF03F01CFA04F080F887
:1020B00004F0F6F803F0F4FC04F05CFBFFF7D0FF4B
:1020C00003F0BAFE00F008FF354C00200146A07076
:1020D00020706070334802F07BFD32492089096826
:1020E000486331A1002003F0A1FA33A004F062F8A4
:1020F00000F0C6FC06463F48006805F0B9FB044600
:102100000D46304605F0B4FB02460B463A48CDE991
:10211000004504F04FF839A1002003F087FA3BA0F6
:1021200004F048F8444E37680024444D42F21078D9
:1021300025E0642001F0C0FC03F084F8286805F075
:1021400097FB20F0004005F031FDB0F17C5F0DDA27
:10215000641CE4B2286805F08BFB02460B4638A0ED
:10216000009404F027F8032C09D30CE0002428681D
:1021700005F07EFB02460B4639A004F01BF83068E0
:10218000C11B4145D5D3286805F072FB02460B46BA
:1021900039A004F00FF8BDE8FC4144A004F00AB8EF
:1021A0008C000020F800002053797374656D207353
:1021B000746172742E0000005B424F4F545D2046E4
:1021C0004F432063616C6962726174696F6E207342
:1021D00074617274696E672028776865656C206D1C
:1021E0007573742062652066726565292E2E2E0D2A
:1021F0000A000000B000002028820008464F43205B
:1022000063616C696220646F6E652E005B424F4FA4
:10221000545D2057616974696E6720666F72206D26
:102220006F746F7220746F20636F61737420646FBA
:10223000776E2E2E2E0D0A00680000202C00002044
:102240005B424F4F545D20636F6173742073706401
:102250003D252E3266202825752F33290D0A0000D2
:102260005B424F4F545D20636F61737420737064E1
:102270003D252E32660D0A005B424F4F545D204DC6
:102280006F746F722073746F707065642028737040
:10229000643D252E3266292E205374617274696E56
:1022A0006720746573742E0D0A0000005B424F4F67
:1022B000545D2052656164792E20424C4443206D68
:1022C0006F64652E0D0A00002DE9F04F8F498E4C8A
:1022D00099B009682089486300266670DFF830925B
:1022E0000127FFF783FE8B49054601448A4A0220F5
:1022F000914201D2022709E08649C9438D4203DD9C
:1023000086498D4200DC0027A67007B1A070DFF877
:1023100010A29AF8000068B100F03CFE4FF4805122
:10232000804801F0A7FD8048DFF80082017801298C
:1023300005D06EE0B4F9060003F086FBEEE7067008
:10234000D8F80000CDE9165914900FB1012000E033
:102350000020002163780A46012B00D0002303F0FF
:1023600077FD8DF854001022302114A803F036FDBB
:102370009AF800705546E7B3D8F80090286A05F03F
:1023800077FA83460A91286C05F072FACDE90801C4
:10239000A86A05F06DFACDE90601484605F068FA2D
:1023A00082468946012F39D0032F39D0D5F8100045
:1023B00005F05EFACDE90401286B05F059FACDE984
:1023C0000201E86905F054FACDE90001686805F0FA
:1023D0004FFA02460A98CDE912B095F82400109001
:1023E000DDE90803CDE90E03514B1B885148006815
:1023F00000E00EE0CDE90C03DDE90603CDE90A03B8
:10240000CDE908A9CDE906A90B4639464A4803F0AB
:10241000D1FE4A480178012904D007E06869C7E77E
:10242000A869C5E70670464803F026FD03F0B6FF2D
:10243000444D28682169401A4349884214D92868C4
:102440002061D8F80000B4F9061000F0FF400843FE
:10245000286801D060610FE06169401A44F620618C
:1024600088420ED904F0ECF9D8F80000B4F906104F
:1024700000F0FF40084304D02868A06119B0BDE80F
:10248000F08F2868A169401A42F210718842F5D98C
:102490002868E169401A41F288318842EED92868FB
:1024A000E06121792948C1B12671018C0A0A8DF8B1
:1024B00000208DF80110418C0A0A8DF802208DF859
:1024C0000310C08C0622010A8DF804108DF8050057
:1024D0002221684603F082FCD0E701212171418A64
:1024E0000A0A8DF800208DF80110C1890A0A8DF8BA
:1024F00002208DF8031040890622010A8DF804108D
:102500008DF805002121E4E78C000020F800002070
:102510000000C841FFFF0FBEFFFF0700000034426C
:102520000843002000080140640000202C00002027
:102530001E00002034000020708200085A00002095
:10254000100E002068000020E0930400B842002034
:1025500070B500EBD0704510144800240268144890
:10256000521C90F9011007D0491E49B24170002950
:102570000BDC0021417007E0491C49B2417005297C
:1025800002DB0521417000E0012404F0BDFE284477
:1025900000B2012801DA012004E0B0F5967F01DBEA
:1025A00040F22B10002C00D1002070BD3400002020
:1025B00010000020FEE7000070B504460578D0F852
:1025C00005001649A0F50002B2F17C5F00D8C86290
:1025D0000878A84202D0284600F0BEFD104E35B162
:1025E000012D0AD0022D0DD0032D14D10FE0D4F807
:1025F000010005F09FFAF0800DE0D4F8010000F032
:10260000D5FD08E0D4F8010000F0CAFD03E0D4F8DD
:10261000010000F0BFFD0020707070BD0843002075
:102620008C0000202DE9F05FDFF8489104464FF060
:10263000000A99F8000000287ED0DFF83C81256868
:102640006368A668D8F80020B6EB030C571BB7EBFD
:102650000C075B1B6AEB0A01B21A6AEB0A009D18B1
:102660004141022200232846FDF717FE0546D8F80F
:102670000000206010221321204603F0AFFB7F1ED4
:10268000952F73D2D8F80000C346DFF8F080E842F7
:1026900013D099F8030040B108EBC00353E90223BB
:1026A0006A4083EAE576324307D008EBC003EA17B5
:1026B000C3E90052401C89F8030099F8030003287D
:1026C00054D3D8E9000205461746012608EBC60395
:1026D000D3E90013B5EB010C72EB030C01DA0D46E4
:1026E0001A46B1EB000C73EB070C01DA08461F46E3
:1026F000761C032EEADB281A62EB0702323872F1ED
:1027000000002DDAD8E90420DBF800505B46514682
:10271000561940EB0105361E75F1000503DA1E68F7
:102720005542B5421CD899F80060012E18D11E6898
:10273000A4689219484100E018E0141B60EB010006
:102740006426A61B70F100060ADA6FF03107BE118D
:102750003C1B864104DA72B61A6062B689F800A0A2
:1027600089F803A018210548FDF7C4FF89F801A0E6
:10277000BDE8F09F8C0000206C000020F04200209B
:1027800030B50346002031240FE000BF13F8012BC1
:1027900050400022050602D584EA400000E04000D7
:1027A000521CD2B2C0B2082AF4D3491E89B2EDD26B
:1027B00030BD0000014801F06FB800006002002049
:1027C000014801F069B8000070030020014801F0E1
:1027D00063B800002C030020014801F05DB8000040
:1027E000E8020020014801F057B80000A4020020D0
:1027F00030B590F840500124AC40C56B6C60046863
:1028000063604368102B036803D099600068C2605E
:1028100030BD9A600068C16030BD000004480549C1
:102820000068B0FBF1F004494968B1FBF0F0704773
:102830000C00002040420F00001000E0704710B56F
:102840004FF4805001F01AFA4FF4005001F016FADC
:10285000BDE810404FF4804001F010BA72B6FEE7B8
:1028600006490020C8610648016941F00401016180
:10287000016941F04001016170470000B803002088
:1028800000200240064A0021D16106490A6942F04F
:1028900002020A614861086940F04000086170471F
:1028A000B803002000200240044B0022DA61044AF1
:1028B000136943F00103136101807047B8030020DE
:1028C0000020024014480022C168CB06134904D5F9
:1028D000CA6942F00202CA611022C3685B0705D5CB
:1028E000CB6943F00103CB6142F00402C369DB070B
:1028F00007D0CB6943F00403CB61C16921F001012A
:10290000C161A2F58071013901D0C2607047C1690F
:1029100021F00101C161704700200240B80300208E
:1029200070B5054601F0B8FA0646114C09E0681C7E
:1029300007D025B101F0B0FA801BA84201D90320CD
:1029400070BDE068C007F2D1E068800601D52020A4
:10295000E060E068C00605D4E069C00702D1E06825
:10296000400703D5FFF7AEFF012070BD002070BD0A
:10297000002002402DE9F04705464FF07E50854289
:1029800002DC3948854200D905460E46084604F067
:1029900079FE294605F06AF9DFF8D08007464146FE
:1029A000304605F09BFA04F06DFE294605F05EF90D
:1029B00004464146304604F087FF04F063FE294692
:1029C00005F054F906464FF0FF384146384605F009
:1029D00030FB4FF07C57394604F076FFDFF89090DB
:1029E000494605F043F905F0C1F885B24146204655
:1029F00005F01FFB394604F067FF494605F036F93C
:102A000005F0B4F884B24146304605F012FB394671
:102A100004F05AFF494605F029F905F0A7F881B2FC
:102A20004FF49672501E954200D30546944200D34F
:102A30000446914200D301460E480560001D046023
:102A4000001D0160012240210B4801F020FA0B4CCF
:102A500001228021204601F01AFA2046BDE8F04705
:102A60000122110201F013BA000080BF920A064051
:102A7000008095433804004000080140000C0140EC
:102A80002DE9F04FA5B01C211AA8FDF733FE1C213B
:102A90000EA8FDF72FFE1C2107A8FDF72BFE19221B
:102AA0000221A64803F086FB01224021A44801F040
:102AB000EEF9A44D01228021284601F0E8F9012217
:102AC0001102284601F0E3F900256E1EDFF878A216
:102AD000A946B046AB462F465946504605F0FEF98A
:102AE0009A49239005F0C2F8014624909848FFF7D0
:102AF00041FF052000F0E0FF02F09EFC9548C4680D
:102B0000444521D0012C1FDB062C1DDC924850F8D7
:102B1000240004F0ADFE80460291239804F0A8FE44
:102B2000B9F1280F01DB8DA300E08EA30495CDE958
:102B30000593029A0B46CDE902820246009439467B
:102B4000894803F037FBA046B4420ED16D1CC82D56
:102B50000EDB00F031FB239804F08AFE02460B46A0
:102B6000214682A003F026FBC7E0A94600252646A1
:102B7000601E05281FD8B9F1280F1CDA2498009090
:102B800004F080FD1AA951F8241004F09DFE1AA942
:102B900041F82400009804F0FBFB0EA951F8241022
:102BA00004F092FE0EA941F8240007A850F8241062
:102BB000491C40F824104FF07E51584604F084FE22
:102BC00083465146504502DB05F088F9834641F2C1
:102BD000B0307F1C8742FFF67FAF00F0EDFA002097
:102BE0000690054605906EA003F0E4FADFF868B1A0
:102BF00001240DF11C0900BF59F824600A2E0DDADA
:102C00005BF8240004F034FE0A22CDE9006202469B
:102C10000B4621466DA003F0CDFA65E0304604F086
:102C2000C5FF07460EA8394650F8240004F0C0FE40
:102C300006461AA8394650F8240004F0B9FE314679
:102C400004F034FA6E4905F011F8074610F1FF4F11
:102C500003D3514604F038FE07465BF8241038468B
:102C6000049105F03BF90646DFF8988104E05146EF
:102C7000304605F033F906464645F8DCDFF8888132
:102C8000464505D95146304604F01EFE0646F7E794
:102C9000304604F0EDFD80463846039104F0E8FD2F
:102CA00007460191049804F0E3FD59F824200492AA
:102CB00002460B46CDF808800097214653A003F04A
:102CC00079FA2249304604F0D1FF064604F0DAFCD6
:102CD000069904F0F9FD0690304604F059FB059979
:102CE00004F0F2FD6D1C0590641C062C84DD022DA1
:102CF00007DA294651A003F05DFA002025B0BDE8AF
:102D0000F08FDDE9051004F0D1F93D4904F0AEFF84
:102D100004465548062D046003DA2946534803F05B
:102D200049FA204604F0A4FD0B468DE8290002462E
:102D30004FA003F03FFA2046E0E70000F8820008C9
:102D400000080140000C01400000B44335FA8E3CFD
:102D50008FC2753DD8030020EC800008534B4950CA
:102D6000000000004F4B0000B48300085B43414C5F
:102D70005D2041424F525445443A206D6F746F724A
:102D8000207374616C6C656420617420706F733D96
:102D900025642064726976653D252E31660D0A0032
:102DA0005B43414C5D20706F7320206E6F6D696EC8
:102DB000616C20206D6561737572656420202064EC
:102DC000696666202020636E740D0A005B43414CE7
:102DD0005D2020256420202020252E306620202004
:102DE00020202028736B69707065642C20636E74DA
:102DF0003D2564203C206D696E3D2564290D0A0047
:102E0000E02E654200003443000034C35B43414C74
:102E10005D2020256420202020252E3066202020C3
:102E2000202020252E3166202020202020252B2E1A
:102E3000316620202025640D0A0000005B43414CD0
:102E40005D204641494C45443A206F6E6C792025FF
:102E5000642F3620706F736974696F6E73207365A9
:102E6000656E0D0A00000000B000002048830008D5
:102E70005B43414C5D20504153533A2048616C6C98
:102E8000206F66667365743D252E31662064656724
:102E900020287261773D252E31662C2025642F363F
:102EA00020706F73290D0A00094810B500680749A2
:102EB000084C002803DDE06804F006FD03E003DAB7
:102EC000E06805F00BF8E06010BD000092240941B5
:102ED00034000020B00000201CB51948016841F002
:102EE00080710160174800244460016841F00101CD
:102EF0000160FFF793FC1449486014488860CC6077
:102F00006C211348FDF7F6FB1148124900230470A9
:102F1000C0E90B141048CDE90001104C0C482246C2
:102F20000F49343002F01CFF0E4800900190084811
:102F30000D4B0E4A2146503002F012FF1CBD00001E
:102F4000FCED00E0001000E0B000002040420F0067
:102F500008430020CDCC4C3F00002042CDCC4C3D5E
:102F60008FC2753D0000A0416F12033B6F12833A80
:102F700010B5FFF753FC06494A68821AB2F5FA7F8A
:102F800001D2002010BD8A604860012010BD000001
:102F9000B00000202DE9F047604C207800287BD05D
:102FA00002F06AF95E4D6060E868E0605D4E60685E
:102FB00003E000BF04F092FF606031468842F9DA16
:102FC000594FB84204D3314604F07EFC6060F8E704
:102FD000564904F04BFEA060554807686869381AE6
:102FE00004F0FCFDDFF84C81414604F03FFE5249FD
:102FF000064608445149884200D346466F6150490D
:10300000206B04F061FC2063E16A04F0FBFE01D256
:10301000E06A20634B484C490027006820F00042DA
:103020008A4205DDB0F5000F01DB084600E04748A5
:1030300047498046304604F019FE824640462969D9
:1030400004F04CFF514604F0DDFE04D251462869DD
:1030500004F03AFC0DE08AF000494046296904F08A
:103060003DFF494604F0CEFD05D25146286904F0E3
:1030700035FF286102E04046C5F81080A062217843
:10308000E2680546012908D02448343080460229E8
:1030900005D0032914D106E03DE0676910E033460E
:1030A0002A46216909E01D4833465030A16902F0E3
:1030B000DFFD014633462A46404602F0D9FD074669
:1030C0003846216B04F09EFE00D2276B206B3946F8
:1030D00080F0004004F096FE02D2206B80F00047A2
:1030E00017F0FF4F4FF000000DD0A26884F82400C5
:1030F00018491046E76104F0E7FB01463846BDE891
:10310000F047FFF737BCE06184F824002062BDE897
:10311000F04700F051B8BDE8F087000008430020F8
:10312000B00000200000B4430000808035FA8E3CDF
:10313000680000206F12833AE9482EC7EA482E063D
:103140006F12033B2C00002000001642000016C244
:103150000000C841DB0FC93F70B50C4C0546207814
:10316000A84211D000F028F8012000F0A5FC04F1DD
:10317000340002F0FEFD04F1500002F0FAFD0020E0
:103180000349E06120630861257070BD0843002099
:10319000B00000200149886170470000084300200A
:1031A0000149086170470000084300200149486157
:1031B00070470000084300200C4910B5002008604B
:1031C000091D0860091D086002464021084800F0FA
:1031D0005EFE084C00228021204600F058FE0022AE
:1031E000A1152046BDE8104000F051BE3804004053
:1031F00000080140000C014070B586B0EFF3108468
:1032000072B6124E356800210091CDE901100120FF
:10321000CDE9030100F000FD04A9684600F05EFC62
:1032200000F0B0FC3068A84201D3401B05E007491C
:1032300008310968491B0844401C05490A681044C4
:10324000086084F3108806B070BD000024080040B8
:103250006800002070B50D460646EFF3108472B684
:1032600000F0DAFC2A4600233146012000F094FCED
:1032700000F088FC84F3108870BD00002DE9F04157
:10328000224C608804F0AAFC0746214904F090FB18
:10329000204904F08DFB0546A06928B104F086FCA6
:1032A000294604F0E3FC05461B49E06904F0DEFC16
:1032B00006461A49284604F0D9FC314604F004FBBE
:1032C000E0616061384604F051FCA188084480B296
:1032D000A080952817D304F081FC114904F0C6FCA6
:1032E000A16A04F0F1FA054604F040FCC6B230468B
:1032F00004F074FC294604F0E7FDA062304603F0B8
:1033000063FA0020A080BDE8F08100001C000020CE
:1033100000002842CDCCCC3DCDCC4C3FCDCC4C3E5A
:10332000B88FDC3BF8B500250446009590F82400E2
:1033300001280BD0012084F824002046FEF7B4FDBC
:103340002046FEF715FE060002D050E00220F8BD30
:10335000A06A20F4885040F00200A062022000F031
:1033600039FE25490968B1FBF0F0400000E0401E3D
:1033700000900028FBD12068816841F0080181603D
:1033800000F08AFD074608E000F086FDC01B0A2811
:1033900003D920688068000715D42068806800077A
:1033A000F2D42068816841F00401816000F074FD6E
:1033B000074612E000F070FDC01B0A280DD92068F6
:1033C0008068400709D5A06A20F0020040F0100094
:1033D000A06284F824500120F8BD2068806840076E
:1033E000E8D4A06A20F0020040F00100A06284F856
:1033F00024503046F8BD00000C000020F8B5002431
:10340000009490F824202546012A12D0012280F849
:1034100024204A681F23072A0DD20668776B521EA4
:1034200002EB820293409F430B6893401F437763F4
:1034300019E00220F8BD06680D2A0AD2376BD21FA8
:1034400002EB820293409F430B6893401F43376314
:1034500009E0F76A0D3A02EB820293409F430B6842
:1034600093401F43F7620A68072306680A2A0AD3B3
:10347000F7680A3A02EB420293409F438B689340FD
:103480001F43F76008E0376902EB420293409F4315
:103490008B6893401F4337610A68102A01D0112AB4
:1034A00020D1124B02689A4217D193681B0219D49B
:1034B000936843F4000393600968102912D10C4902
:1034C0000C4A0968B1FBF2F101EB8101490000E00F
:1034D000491E00910029FBD104E0816A41F02001DE
:1034E0008162012480F824502046F8BD0024014068
:1034F0000C00002040420F007047704770470000EA
:103500002DE9F0414FF0000704003D467ED0A06A4F
:10351000002628B9E66284F82460204600F07EF890
:103520002046FEF7C1FCA16AC90600D420B1A06AFA
:1035300040F01000A06269E0A16A21F4885141F0D6
:103540000201A1626268E169237B0A4347EA430101
:103550000A43A1684FF48077B94209D0012907D006
:103560005FF0000194F814C0BCF1010F02D00AE032
:103570003946F7E7F3B1A36A43F02003A362E36A95
:1035800043F00103E3622368D3F804C02CF4694CD0
:103590004CEA010CC3F804C021688B68DFF870C0E6
:1035A00003EA0C0313438B60A168B9420BD00129D5
:1035B00009D00CE0DFF85CC0A3690CEB43330B438C
:1035C00043F40061DFE7218A0D05A5F58015216828
:1035D000CB6A23F470032B43CB62216889680E4BBE
:1035E0001940914208D1E662A16A21F0020141F03E
:1035F0000101A162BDE8F081A06A20F0020040F064
:103600001000A062E06A40F00100E0620120F1E7F2
:10361000FDF7E1FF00E0FFFFFE0E1FFF70B586B073
:1036200000250646009501950295039500681A4904
:1036300088422ED11949886940F4007088618869F0
:1036400000F400700490886940F004008861886983
:10365000694600F004000490362000900320019099
:103660000F4800F017FB104C0E48C4E900058020FD
:10367000C4E9025040002061800060612020C4E95C
:103680000605204600F0B2F908B1FFF7E7F834620A
:10369000666206B070BD00000024014000100240C8
:1036A0000008014008000240600200202DE9F047B8
:1036B000894604463B4900683B4F0E1D90468842B0
:1036C00001D0B84207D1306810F4702F03D0012523
:1036D0002846BDE8F08794F8240001280CD001208A
:1036E00084F824002046FEF743FC05004FF000005C
:1036F00004D084F82400EBE70220EAE7A16A40F650
:103700000162914341F48071A1622168B94218D1EC
:10371000326812F4702F14D0A16A41F48011A162B2
:103720003168490505D5A16A21F4005141F4805161
:10373000A162A16AC9040AD5E16A21F00601E16229
:1037400006E0A26A22F48012A2624968E9E7E06218
:1037500084F82400216A15488862216A1448C862E6
:10376000216A1448086321686FF00200086020682D
:10377000816841F480718160216843464A464C313A
:10378000206A00F061F920688168C1F3424107298D
:10379000816803D041F48011816099E741F4A00170
:1037A000FAE700000024014000280140FF1E000845
:1037B000671F00084D1F000810B590F82110002267
:1037C000022905D00421816380F82020012010BD4A
:1037D00001680B6823F00E030B6001680B6823F08F
:1037E00001030B6090F84030C46B012101FA03F330
:1037F000636080F8211080F82020104610BD000082
:1038000010B590F821100024022903D0042181630F
:1038100001243DE001680A6822F00E020A60016896
:103820000A6822F001020A601A4A0168914201D135
:10383000012121E0174A1432914201D110211BE0ED
:10384000144A2832914201D1891515E0114A3C32BF
:10385000914201D189140FE00E4A5032914202D1B7
:103860004FF4803108E00B4A6432914202D14FF4A8
:10387000801101E04FF08071064A083A5160012141
:1038800080F82110002180F82010416B01B1884799
:10389000204610BD080002402DE9F05FC16B0C68A6
:1038A00001680B68D0F840C0042202FA0CF2494DBE
:1038B000DFF824A1494E4A4FDFF828B1DFF828E1AC
:1038C00022422CD05A072AD50A68920603D40A68E5
:1038D00022F004020A600168A94201D1042219E021
:1038E000514501D1402215E0B14202D14FF480622E
:1038F00010E0B94202D14FF480420BE0594502D1A9
:103900004FF4802206E0714502D14FF4800201E0BD
:103910004FF080622F4908394A60C16A3BE04FF09E
:10392000020808FA0CF818EA040F4FF000094FF0EB
:10393000010235D05FEA837832D50B689B0605D447
:103940000B6823F00A030B6080F821200168A9426C
:1039500001D1022219E0514501D1202215E0B142E6
:1039600002D14FF4007210E0B94202D14FF400527C
:103970000BE0594502D14FF4003206E0714502D107
:103980004FF4001201E04FF00072124908394A600A
:1039900080F82090816A00291AD0BDE8F05F0847BE
:1039A000082505FA0CF5254212D01B0710D50B6827
:1039B00023F00E030B6090F84010C36B02FA01F184
:1039C0005960826380F8212080F82090016BE2E743
:1039D000BDE8F09F080002401C0002403000024099
:1039E00044000240580002406C00024030B528B349
:1039F00008C8134914221944B1FBF2F18900C163CC
:103A000010498163022141771A6843F6F0718A43B5
:103A1000D0E900142143D0E902452C432143046935
:103A200021434469214384692143114319600021E2
:103A30004163012242770177084630BD012030BD45
:103A4000F8FFFDBF0000024070B5044690F820006A
:103A5000002501280CD0012084F8200094F8216072
:103A60000020012E06D084F820000225284670BDD3
:103A7000022070BD022684F82160A06320680668D9
:103A800026F0010606602046FEF7B2FEE06A002836
:103A90002068016802D041F00E0106E021F0040127
:103AA00001602068016841F00A0101602068016836
:103AB00041F001010160D9E770B5044600F0ECF96E
:103AC0000546601C02D004480078044400F0E4F984
:103AD000401BA042FAD370BD000000202DE9F04742
:103AE000054626480F460126017E01290FD00121F7
:103AF000814601762868DFF888804CF2503402282D
:103B000008D0A2462046FEF70BFFA8B131E0022004
:103B1000BDE8F0872046FEF703FF08BB0120FEF753
:103B20009FFE2046FEF7FCFED8F81010064621F056
:103B30000401C8F810101CE04FF0FF303860AC688A
:103B400011E02046FEF79EFE5046FEF7E9FED8F84B
:103B50001010060021F00201C8F8101001D03C60DE
:103B600007E004F58064D5E9020100EB8120A04262
:103B7000E7D8002189F818103046C9E7B8030020BB
:103B8000002002400348016941F0800101610020EA
:103B900070470000002002402DE9F05F07461C48F6
:103BA00088460024017E15461E46012909D00121C0
:103BB000814601764CF2503A5046FEF7B1FE18B1FC
:103BC00022E00220BDE8F09F012F02D0022F00D09A
:103BD0000427D346DFF83CA0220128463146FCF7F3
:103BE00049FB81B208EB4400FEF75EFE5846FEF743
:103BF00097FEDAF8102022F00102CAF8102018B956
:103C0000641CE4B2BC42E7D3002289F81820D9E74B
:103C1000B803002000200240064900200A6912066D
:103C200007D5054A4A60054A4A600969090600D570
:103C3000012070470020024023016745AB89EFCD8A
:103C400010B5B0F5805F05D0B0F5005F02D0B0F5DB
:103C5000804F0FD1FFF78CF900280BD001F0ECFB5F
:103C60000548C168491CC16001F012FCBDE8104064
:103C7000FFF71AB910BD00001C000020044910B560
:103C80000A68024202D00860FFF7DAFF10BD0000A8
:103C9000140401402DE9F84FDFF8B8910024A9F190
:103CA000040B23460F2709F1040AABF1040EC9E007
:103CB0000125A5402A40AA427DD1674ED1F804C013
:103CC000ACEB0608B44532D014DCBCF1030F3AD09B
:103CD00009DCBCF1000F2AD0BCF1010F1CD0BCF1F3
:103CE000020F31D11DE0BCF1110F17D0BCF1120F42
:103CF0002AD119E0B8F5881F19D006DCB8F5803F45
:103D000015D0B8F5801F1FD111E0B8F5001F0ED0F7
:103D1000B8F5041F18D10AE0CB6815E0CB681B1D6D
:103D200012E0CB6808330FE0CB680C330CE08B68F3
:103D30002BB1012B4FF0080303D0456104E00423AD
:103D400002E0056100E00023FF2A01D8064601E0F9
:103D500000F104064FEA840501D9A5F12005D6F843
:103D6000008007FA05FC28EA0C0803FA05F548EA82
:103D70000508C6F800804D68ED0062D5374DAE6984
:103D800046F00106AE61AD6924F0030605F00105B9
:103D90000095334D06EB050CDCF80850A607360FEE
:103DA00007FA06F825EA0805DFF8B880404503D190
:103DB0004FF0000817E044E0DFF8AC80404502D146
:103DC0004FF001080FE0DFF8A480404502D14FF02A
:103DD000020808E0DFF89880404502D14FF0030860
:103DE00001E04FF0040808FA06F848EA0508CCF8A4
:103DF00008804D68D9F80060ED024D4601D51643A4
:103E000000E096432E604D68DAF80060AD0255463A
:103E100001D5164300E096432E604D68DBF8006044
:103E2000AD035D4601D5164300E096432E604D6814
:103E3000DEF80060ED03754601D5164300E09643B9
:103E40002E60641C0D682A46E5407FF431AFBDE862
:103E5000F88F00000804014000001110001002401B
:103E60000000014000080140000C0140001001402A
:103E7000001401408068084000D001207047C268EB
:103E800021EA02030A4043EA0241016170470AB194
:103E9000016170470904FBE7014880687047000032
:103EA0000000002002488168027811448160704758
:103EB00000000020074810B5016841F010010160C2
:103EC000032000F075F80F2000F006F800F024F849
:103ED000002010BD0020024070B50D4D04464FF487
:103EE0007A712878B1FBF0F00A490968B1FBF0F06B
:103EF00000F0A4FB48B9102C07D200222146501E26
:103F000000F036F800206C6070BD012070BD00002C
:103F1000000000200C0000200C4808B5816941F029
:103F200001018161816901F001010091C16941F0E4
:103F30008051C161C06900F0805000900448416820
:103F400021F0E06141F00071416008BD00100240C5
:103F500000000140002809DB00F01F020121914010
:103F60004009800000F1E020C0F800117047000017
:103F7000F0B40E4B1B680C46C3F30223C3F10705D4
:103F8000042D00D90425191D072901D2002300E0C2
:103F9000DB1E012606FA05F1491E214099409E408C
:103FA000761E16403143F0BC02F0A6BF0CED00E0D7
:103FB000064900F0070208684FF6FF03184040EA80
:103FC0000220034A10430860704700000CED00E037
:103FD0000000FA0510B501460020234C012922D02B
:103FE000022939D010291DD161682268D20119D562
:103FF0001E48C1F38342C903805C0AD561681B4A2D
:10400000C1F34041921E515C194AB2FBF1F14843A1
:1040100001E0184948436168490203D44000032184
:10402000B0FBF1F010BD226AC2F30121012903D1D6
:10403000920701D5C80310BD022905D1626A920713
:1040400002D549F6404010BD0329FCD121688903FF
:10405000F9D54FF2244010BD00F02AF96168C1F390
:104060008131491C4900DBE700100240C280000892
:1040700000127A0000093D002DE9F843054600785A
:10408000354CC00754D0E0690026C00008D4E06970
:1040900040F08050E061E069012600F0805000901F
:1040A0002E480168C90512D40168804641F4807128
:1040B0000160FFF7F1FE074605E000BFFFF7ECFEE9
:1040C000C01B642823D8D8F80000C005F6D5206AA4
:1040D00010F4407021D0A98801F4407181421CD0B5
:1040E000206A1F49012220F440700A6000220A6001
:1040F0002062C00711D0FFF7CFFE074641F2883893
:1041000008E000BFFFF7C8FEC11B414502D90320EC
:10411000BDE8F883206A8007F4D5206A696820F436
:104120004070084320621EB1E06920F08050E061D9
:104130002878800705D56068A96820F440400843C6
:1041400060602878C00605D56068E96820F48000C2
:10415000084360600020DBE7001002400070004070
:10416000400442422DE9F0470F46050061D0434E1E
:10417000306800F00700B84209D2306820F007002C
:1041800038433060306800F00700B84251D12868E9
:104190003B4C810712D5400703D5606840F4E060CE
:1041A00060602878000703D5606840F46050606064
:1041B0006068A96820F0F000084360602878C007B4
:1041C00028D06868012810D02168022810D08907FB
:1041D00000292EDA616821F0030101436160FFF7D5
:1041E0005BFE804641F288390DE021688903EFE7E4
:1041F0008901EDE7FFF750FEA0EB0801494502D920
:104200000320BDE8F0876068696800F00C00B0EB3F
:10421000810FEFD1306800F00700B8420BD9306849
:1042200020F0070038433060306800F00700B842E3
:1042300001D00120E5E72878400705D56068E968E6
:1042400020F4E060084360602878000706D56068C5
:10425000296920F4605040EAC100606000F038F83D
:104260006168084AC1F30311515CC84006490860FF
:1042700006480068FFF730FE0020C2E70020024039
:1042800000100240D28000080C0000200400002032
:104290000448054900684968044AC1F30221515C99
:1042A000C84070470C00002000100240E280000867
:1042B0000448054900684968044AC1F3C221515CB9
:1042C000C84070470C00002000100240E280000847
:1042D0000E4A51680E4801F00C03042B11D0082B34
:1042E0000FD10C48C1F38343C903C05C0AD55168A0
:1042F000084AC1F34041921E515C054A5043B0FB4D
:10430000F1F0704704494843704700000010024034
:1043100000127A00B080000800093D002DE9F84F36
:10432000040070D02078C04DC00749D06868C0F341
:104330008100012807D06868C0F38100022809D1F4
:104340006868C00306D52868800339D560680028EE
:10435000E7D035E06068B0F5803F0BD010B1B0F524
:10436000A02F11D0286820F480302860286820F41D
:10437000802002E0286840F480302860606890B1B6
:10438000FFF78AFD06460AE0286840F4802028608E
:10439000F0E700BFFFF780FD801B642873D8286812
:1043A0008003F7D50CE0FFF777FD064605E000BF78
:1043B000FFF772FD801B6428F0D828688003F7D4CB
:1043C00020789A4E80074FF001094FF0000839D548
:1043D000686810F00C0F07D06868C0F381000228ED
:1043E00009D16868C00306D42868800714D52069FD
:1043F000012808D110E02069B0B1C6F80090FFF79D
:104400004BFD074605E00AE1FFF746FDC01B022809
:10441000C4D828688007F7D52868616920F0F800BB
:1044200040EAC10028600DE0C6F80080FFF734FDC7
:10443000074604E0FFF730FDC01B022823D8286898
:104440008007F7D4207800072CD57948A169D9B125
:10445000C0F80090FFF720FD074604E0FFF71CFDC1
:10446000C01B02280FD8686A8007F7D571484FF43F
:10447000FA510068B0FBF1F0009000BF0098411EB7
:104480000091FAD20EE080E0C0F80080FFF704FD52
:10449000074604E0FFF700FDC01B022875D8686AD4
:1044A0008007F7D42078400760D5E8690027C0006E
:1044B00008D4E86940F08050E861E869012700F01D
:1044C000805000905C480168C90513D40168834698
:1044D00041F480710160FFF7DFFC824606E000BF17
:1044E000FFF7DAFCA0EB0A0064284ED8DBF80000E6
:1044F000C005F5D5E06801280AD008B1052813D019
:10450000286A20F001002862286A20F0040002E0F6
:10451000286A40F001002862E06841F2883B98B1C7
:10452000FFF7BAFC82460BE0286A40F004002862DC
:10453000EEE700BFFFF7B0FCA0EB0A0159455AD8DF
:10454000286A8007F6D50CE0FFF7A6FC824605E056
:10455000FFF7A2FCA0EB0A0159454CD8286A800756
:10456000F6D41FB1E86920F08050E861E06988B3B3
:104570006968C1F38101022944D00228C6F860802D
:1045800004D0FFF789FC044638E034E0FFF784FCF0
:10459000074604E0FFF780FCC01B02282BD82868E0
:1045A0008001F7D4206AB0F5803F05D16868A16822
:1045B00020F4003008436860D4E9080108436968C2
:1045C00021F4741108436860C6F86090FFF764FC3A
:1045D000044606E025E000BFFFF75EFC001B022852
:1045E00009D828688001F7D51BE000BFFFF754FC0D
:1045F000001B022802D90320BDE8F88F286880013B
:10460000F4D40EE00128F7D06868226A00F4803103
:10461000914204D1616A00F47010884201D00120F7
:10462000EAE70020E8E700000010024000004242F4
:10463000800442420C0000200070004010B5401E73
:10464000B0F1807F01D3012010BD4FF0E024606104
:104650000F21601702F050FC0020A06107202061AC
:10466000002010BD7047704770B590F83C20012ABB
:1046700026D0012480F83C40022280F83D200368C7
:104680005A689D6822F070060A6832435A600D4BE2
:1046900002689A4208D0B2F1804F05D00A4B9A4284
:1046A00002D00A4B9A4204D1496825F0800319438D
:1046B000916080F83D40002180F83C10084670BDB4
:1046C000022070BD002C01400004004000080040A2
:1046D00010B5040003D094F83D0010B107E00120AC
:1046E00010BD002084F83C00204600F01FF8022096
:1046F00084F83D00211D206802F044F9012084F86F
:10470000460084F83E0084F83F0084F8400084F8B6
:10471000410084F8420084F8430084F8440084F89F
:10472000450084F83D00002010BD000008B5016878
:104730000B48B1F1804F0BD00A4A914207D1C169B1
:1047400041F00401C161C06900F00400009008BD9F
:10475000C16941F00101C161C06900F00100F5E7E4
:10476000001002400008004090F83D10012901D0DF
:1047700001207047022180F83D100168CA6842F0AC
:104780000102CA6000680B49884208D0B0F1804F2E
:1047900005D00949884202D00849884204D181687D
:1047A00001F00701062903D0016841F00101016011
:1047B00000207047002C0140000400400008004029
:1047C00070B5044690F83C000025012817D001265A
:1047D00084F83C60022084F83D002068826822F062
:1047E000770222F47F4282600868502838D00DDCBE
:1047F00020284FD005DC90B3102811D14AE00220C8
:1048000070BD302846D040280AD13BE060282FD028
:1048100070280DD0B0F5805F03D0B0F5005F12D0E6
:10482000012584F83D60002084F83C00284670BDD6
:10483000CB68D1E90121206802F0EDF82068816899
:1048400041F0770109E0CB68D1E90121206802F04D
:10485000E2F82068816841F480418160E1E719E075
:10486000CA684968206802F08BF95021206806E088
:10487000CA684968206802F094F96021206802F053
:10488000D4F8CEE7CA684968206802F079F9402177
:104890002068F4E7226801461046F0E770472DE9EA
:1048A000F04104460068C66805694FF00007A90793
:1048B00013D5B10711D5F91E0161012020772068B9
:1048C00080698007204602D0FFF7E8FF04E000F08F
:1048D000D5F8204600F07AF92777680716D57007D3
:1048E00014D521686FF00400086102202077206849
:1048F000806910F4407F204602D0FFF7CFFF04E02C
:1049000000F0BCF8204600F061F92777280715D59C
:10491000300713D521686FF0080008610420207764
:104920002068C0698007204602D0FFF7B7FF04E087
:1049300000F0A4F8204600F049F92777E80616D5DC
:10494000F00614D521686FF0100008610820207768
:104950002068C06910F4407F204602D0FFF79EFF18
:1049600004E000F08BF8204600F030F92777E807E4
:1049700008D0F00706D021686FF0010008612046DA
:1049800000F074F9280608D5300606D521686FF0C6
:10499000800008612046FFF765FE680608D57006AE
:1049A00006D521686FF040000861204600F0C0F98C
:1049B000A8060AD5B00608D521686FF02000086166
:1049C0002046BDE8F041FFF74EBEBDE8F081000093
:1049D000F0B585B000210091019102910391026828
:1049E000224902242248B2F1804F31D0214B9A4211
:1049F0002CD18A6942F004028A618A6902F00402B9
:104A000004928A6942F008028A6189698026CDE9A8
:104A1000006401F00801CDE9034169460746FFF74C
:104A200039F90325CDE900540394134C6946204617
:104A3000FFF730F96946384600960395FFF72AF9E3
:104A400069462046CDF80050FFF724F905B0F0BDC7
:104A50008A6942F004028A618969039401F00401C1
:104A600004910121CDE900146946EDE700100240F0
:104A70000008014000040040000C0140704770B580
:104A8000044690F83C0000260D4601280FD0012076
:104A900084F83C006AB1042A1DD0082A2FD00C2AC1
:104AA0003FD00126002084F83C00304670BD022033
:104AB00070BD206801F0C2FF2068816941F00801E3
:104AC00081612068816921F0040181612068816928
:104AD0002A69114311E0206801F0D8FF206881693C
:104AE00041F4006181612068816921F48061816104
:104AF000206881692A6941EA02218161D2E7206840
:104B000001F0F0FF2068C16941F00801C16120682F
:104B1000C16921F00401C1612068C1692A6911439A
:104B200011E0206802F00AF82068C16941F40061D0
:104B3000C1612068C16921F48061C1612068C169D7
:104B40002A6941EA0221C161ACE710B5040003D033
:104B500094F83D0010B107E0012010BD002084F85A
:104B60003C00204600F01EF8022084F83D00211D84
:104B7000206801F007FF012084F8460084F83E0019
:104B800084F83F0084F8400084F8410084F8420033
:104B900084F8430084F8440084F8450084F83D001C
:104BA000002010BD08B500680649884208D10648B3
:104BB000C16941F00201C161C06900F002000090CA
:104BC00008BD0000000400400010024070470000D3
:104BD00010B50446022249B104290ED0082913D089
:104BE00094F84100012816D0012010BD94F83E0031
:104BF0000128F9D184F83E200FE094F83F00012805
:104C0000F2D184F83F2008E094F840000128EBD16D
:104C100084F8402001E084F841200122206801F05E
:104C2000EDFE0F492068884203D1426C42F40042F5
:104C300042642068884208D0B0F1804F05D009490D
:104C4000884202D00849884204D1816801F00701F6
:104C5000062903D0016841F001010160002010BD68
:104C6000002C0140000400400008004070B50068BE
:104C70002B49884253D12B4C6068401C6060A0686F
:104C8000401CA0606068002610F1020F00D9666029
:104C90006068E1680125401A962802D36068E060E8
:104CA000257060682169401A642803D36068206118
:104CB00000F0C8FA60686169401AC82803D36068C8
:104CC000606100F061FC18480178012907D1616832
:104CD000A269891A322902D306706068A0616068EF
:104CE000E169401AB0F52F7F0BD36068E0610F488F
:104CF0000178022901D011B103E0057001E0022121
:104D000001706068216A401A4EF66021884206D31D
:104D100060682062BDE87040012001F0B1BD70BD47
:104D20000008004064000020AC0000208D0000203E
:104D30007047704770470000F8B50168044608687E
:104D4000CA684B6910F00F0F4FF0000559D003F0FF
:104D5000010602F49077374365D0C10705D0D1052D
:104D600003D5616C41F001016164410705D5D907A4
:104D700003D0616C41F002016164810705D5D90758
:104D800003D0616C41F004016164010707D502F0B2
:104D90002001314303D0616C41F008016164616C12
:104DA00000293AD0800604D5900602D5204601F0AD
:104DB00092FF20684069616CC0F38010090700D43D
:104DC00060B3204601F052FF20684069400621D5BB
:104DD0002068143050E8001F21F0400140E8001224
:104DE000002AF5D1E06BA8B16D494163E06BFEF795
:104DF00007FD002811D0E06B416B01B0BDE8F04029
:104E0000084783060FD593060DD52046BDE8F84028
:104E100001F061BF2046FFF78DFFF8BD2046FFF788
:104E200089FF6564F8BD266B2023012E7CD1C60660
:104E30007AD5D60678D508684868009048694FF05A
:104E40000206400640D5E16B086840680004000C8B
:104E5000E8D0A28D8242E5D9E085886920282DD04E
:104E600020680C3050E8001F21F4807140E80012E7
:104E7000002AF5D12068143050E8001F21F001010C
:104E800040E80012002AF5D12068143050E8001FD5
:104E900021F0400140E80012002AF5D184F84230A8
:104EA000256320680C3050E8001F21F0100140E815
:104EB0000012002AF5D1E06BFEF77EFC6663A08D40
:104EC000E18D401A81B22AE0A08DE18D401A81B2B5
:104ED000E08D0028A6D00029A4D022680C3252E828
:104EE000000F20F4907042E80007002FF5D12068F1
:104EF000143050E8002F22F0010240E80027002F74
:104F0000F5D184F84230256320680C3050E8002F3A
:104F100022F0100240E80023002BF5D16663204602
:104F2000FFF707FFF8BDFFE705062BD5150629D5C6
:104F300094F841002128F5D1A068B0F5805F01D137
:104F40002069B0B1206A411C216221680078486064
:104F5000E08C401E0004000CE084E3D12068C168AE
:104F600021F08001C1602068C16841F04001C1604A
:104F7000D8E7206A0088C0F308004860206A801CD7
:104F80002062E5E74006CDD55006CBD5CA6820465D
:104F900022F04002CA6084F8413000F041F9C1E7D4
:104FA000C76B000870B5040004D094F841000025D8
:104FB00010B106E0012070BD84F84050204600F09A
:104FC00023F8242084F841002068C16821F40051AE
:104FD000C160204601F0E0FE2068016921F49041A3
:104FE00001612068416921F02A0141612068C1689E
:104FF00041F40051C1606564202084F8410084F8C8
:1050000042006563002070BD2DE9F04786B00025A1
:105010000095019502950395044603685848DFF80A
:105020005CC102210322071580264FF020084FF0B3
:10503000100963454CD1836943F4804383618369DC
:1050400003F480430493836943F00403836180691C
:10505000DFF830A100F0040004900802CDE900015F
:10506000039269465046FEF715FECDE90075694684
:1050700050460295FEF70EFE444F4348C7E900052F
:10508000C7E902563D61C7E905583846FD61FEF79C
:10509000ADFC08B1FDF7E2FBE7637C623C4F3A48A8
:1050A000C7E902563D617D61BD611438FD61C7E904
:1050B00000093846FEF79AFC08B1FDF7CFFBA7635D
:1050C0000022012125207C62FEF752FF25204FE0BF
:1050D000DFF8C0C063454DD1C36943F48023C36189
:1050E000C36903F480230493836943F00803836155
:1050F0008069CDE9007100F00800CDE90320264F5A
:1051000069463846FEF7C6FDF814CDE90005694644
:1051100038460295FEF7BEFD1B48204F2838C7E9E8
:105120000005C7E902563D61C7E905583846FD61EB
:10513000FEF75CFC08B1FDF791FBE7637C62184F5A
:105140001148C7E902563D617D61BD613C38FD6192
:10515000C7E900093846FEF749FC08B1FDF77EFBB8
:10516000A7630022012127207C62FEF701FF272090
:10517000FEF7F0FE06B0BDE8F08700000038014001
:10518000001002400008014058000240A402002024
:10519000E802002000480040000C01402C030020E1
:1051A000700300207047000070B5044690F841007D
:1051B000202801D0022070BD49B342B32162A284ED
:1051C000E28400206064212384F84130A56B114BF8
:1051D000AB62A56B104BEB62A56B104B2B63A36B03
:1051E0005863256813462A1DA06BFEF72DFC216825
:1051F0006FF0400008602068143050E8001F41F054
:10520000800140E80012002AF5D1002070BD012085
:1052100070BD0000216C0008636C0008D76B0008AB
:1052200000680549884201D100F026BF0349884241
:1052300001D101F081B870470038014000480040BA
:105240007047000070B50B4CA08960800025E560B8
:1052500000F0B0F86088012809D82078032804D22B
:10526000401CC0B22070032800D3256170BD25709A
:1052700070BD00001C0000202DE9F0473748C768CA
:10528000781E062802D30020BDE8F087354EDFF8EF
:10529000D080316858F82700894602F015FB044693
:1052A000B068314D78B331480068002847D005DD3B
:1052B000012F01D07F1E04E0062702E0062F0AD04E
:1052C0007F1C494658F8270002F0FEFA214602F0FA
:1052D00005FE274F04E00127F3E7294602F0FEFD13
:1052E000B842FADC234FB84203D9294602F0ECFA5F
:1052F000F9E78046FDF792FA7168471A1E4887421F
:1053000002D9002110E01AE0B06802F067FC0646FE
:10531000384602F063FC314602F04AFB01464FF08A
:105320007E50814200DD0146404602F09FFC21464E
:1053300002F0CAFA02E0204602F0D0FD04462946F7
:105340008C42F8DA0D4EB44205D32946204602F0CD
:10535000BBFA0446F7E7204696E70000D803002092
:10536000EC800008B00000200000B44334000020AE
:1053700000003443000034C320A1070000008080F7
:1053800070B50A4D4FF480512846FEF773FD084C66
:10539000691420602846FEF76DFD60604FF480417F
:1053A0002846FEF767FDA06070BD0000000C0140BC
:1053B000D803002010B5FDF761FF074C054960696F
:1053C00002F054FC054902F051FC054902F0F0FAE4
:1053D000206110BD61141D431C00002066666640FC
:1053E00000007A44114800B5816985B041F0080198
:1053F00081618069694600F00800049000200390F4
:105400004FF4E04000900A480190012002900948C2
:10541000FEF740FC002202212820FEF7A9FD2820EB
:10542000FEF798FD00F008F805B000BD001002403E
:1054300000003110000C014010B5FFF7A1FF134828
:10544000D0E90032816843B9012A06D109B90124A3
:10545000C460012901D10224C46053EA020403D1CB
:10546000012901D10324C460012B06D132B1012AE4
:1054700003D1002901D10621C16010BD012901D14C
:105480000422C2600029F8D10521F5E7D8030020E5
:105490001148C268114881688260891A052902D0C2
:1054A0004A1D03D003E04FF0FF3100E001214942E3
:1054B000012901D04A1C09D1026A914207D1416AEF
:1054C000491C4162032901DB51428161704701623D
:1054D0000121416270470000D80300201C00002019
:1054E000FEE700002DE9F041234886B0816941F0D4
:1054F00004018161816901F004010491816941F035
:1055000008018161816901F008010491816941F01C
:10551000100181618069DFF8648000F01000049060
:10552000002002900120019002208402039069462D
:1055300000944046FEF7AEFB0420114E00906946F1
:105540003046FEF7A7FB0F4FA50069463846009589
:10555000FEF7A0FB012221464046FEF798FC0122FF
:1055600004213046FEF793FC012229463846FEF717
:105570008EFC06B0BDE8F08100100240000801403A
:10558000000C0140001001402DE9F047234D244F4D
:10559000DFF89080DFF890A000244FF400664FF40D
:1055A0000059285D20B101280ED0022830D11FE01B
:1055B00044B1012C02D0032C2AD101E001220AE0DF
:1055C00001220CE001220EE064B1012C02D0032C78
:1055D0001ED103E000223146384606E000220421B5
:1055E000404602E0002249465046FEF750FC0FE0DC
:1055F00054B1012C02D0032C0AD102E031463846C6
:1056000004E00421404601E049465046FEF737FCDD
:10561000641CE4B2032CC4D9BDE8F08788000020E4
:1056200000080140000C01400010014070B501B9B4
:1056300014A1154A1368154C154D228802EBC202BD
:1056400002EB420245F8223005EB82036322187117
:10565000581DFBF776F82088002100EBC00202EB12
:10566000420205EB8202401C82F868106421B0FB04
:10567000F1F201FB120020806088642801D2401CF6
:10568000608070BD00000000680000206000002005
:10569000881800202DE9F843174D688818B1642850
:1056A00006D2002705E0BDE8F84314A000F082BD53
:1056B0002F8800244FF06408134E18E03919B1FB0D
:1056C000F8F208FB121000EBC00000EB400106EB03
:1056D0008100421D0092037956F82120611C0BA025
:1056E00000F068FD0A20FEF7E7F9641CA4B26888A0
:1056F0008442E3D3BDE8F883600000204E6F206C45
:105700006F67732E0D0A0000881800205B25755DF9
:1057100020543D257520636F64653D307825303217
:10572000582025730D0A000010B507A000F042FDB7
:10573000FFF7B0FF42F630210A48FAF7DBFF0A48CC
:1057400000210180418010BD4C6F67207265736538
:10575000742E2043757272656E74206C6F673A0DFB
:105760000A00000088180020600000202DE9F041A8
:1057700086B00026344800960196324902960160B0
:1057800089158160012404730675042546604FF471
:1057900060210561C161FDF7B3FE08B172B6FEE795
:1057A0000094CDE9014669462748FDF727FE08B178
:1057B00072B6FEE702260096694623480196FDF779
:1057C0001DFE08B172B6FEE74FF00308CDE90058A0
:1057D00069461D48FDF712FE08B172B6FEE70527BF
:1057E000CDE9007569461848FDF708FE08B172B6A4
:1057F000FEE7CDE9044703A913480394FDF7FEFD36
:1058000008B172B6FEE7039603A90F480496FDF7A8
:10581000F5FD08B172B6FEE7CDE9035803A90A48C1
:10582000FDF7ECFD08B172B6FEE7CDE9037503A9FB
:105830000548FDF7E3FD002801D072B6FEE706B08B
:10584000BDE8F08100240140C8000020194808B5D7
:10585000416941F0010141614069002200F001000D
:10586000009011460B20FEF783FB0B20FEF772FB26
:10587000002211460C20FEF77BFB0C20FEF76AFB92
:10588000002211460D20FEF773FB0D20FEF762FB90
:10589000002211460E20FEF76BFB0E20FEF75AFB8E
:1058A000002211460F20FEF763FBBDE808400F20E1
:1058B000FEF750BB0010024010B58EB000240794D4
:1058C000089409940A940B941C2168460C94FAF7E6
:1058D00011FF1D484FF0804101601E21C0E90114F5
:1058E0006321C0E903148461FEF7F2FE08B172B6C9
:1058F000FEE74FF48050079007A91348FEF760FFBA
:1059000008B172B6FEE71048FFF71FF908B172B68A
:10591000FEE70B940BA90C480C94FEF7A5FE08B10A
:1059200072B6FEE76020CDE90004029400226946C9
:1059300005480494FFF7A3F808B172B6FEE70248E1
:10594000FFF746F80EB010BDF800002010B58AB081
:10595000002407941C2168460894FAF7CBFE1E48E1
:105960001C4901600721C0E9011440F22B11C0E974
:1059700003148461FFF7E9F808B172B6FEE70794F3
:1059800007A915480894FEF76FFE08B172B6FEE746
:105990006020CDE900040294042269460E48049474
:1059A000FFF76DF808B172B6FEE7082269460A48AB
:1059B000FFF765F808B172B6FEE70C2269460648A3
:1059C000FFF75DF808B172B6FEE70348FFF700F88D
:1059D0000AB010BD000400404001002010B586B0A0
:1059E00000241748009401940294039404941349EA
:1059F0000594016041F6FF01C0E901140921C0E9E5
:105A000003148461FEF764FE08B172B6FEE74FF43A
:105A10008050009069460A48FEF7D2FE08B172B67F
:105A2000FEE7049404A906480594FEF71DFE00282D
:105A300001D072B6FEE706B010BD000000080040BD
:105A400088010020FEE7000070B502F0AFF801F019
:105A5000B1FD02F06FF8051E104C4FF000064FF03C
:105A6000FF300CDD00F024F801F04EFCA9B28142B9
:105A700001D361800FE060800120207070BD06DAE4
:105A800000F016F828B2FCF763FD608003E0002008
:105A900000F00EF86680267070BD00001000002037
:105AA00010B500F029F8BDE81040FFF79BBC0000DE
:105AB0001049B0F1FF3FC96803D001280ED0002083
:105AC0000AE0C1F1030000E0801D0128FCDB00E0DA
:105AD000801F0628FCDCC0B200F068B8C1F10600E7
